{
  "contractName": "ERC721Enumerable",
  "abi": [
    {
      "inputs": [],
      "stateMutability": "nonpayable",
      "type": "constructor"
    },
    {
      "anonymous": false,
      "inputs": [
        {
          "indexed": true,
          "internalType": "address",
          "name": "_owner",
          "type": "address"
        },
        {
          "indexed": true,
          "internalType": "address",
          "name": "_approved",
          "type": "address"
        },
        {
          "indexed": true,
          "internalType": "uint256",
          "name": "_tokenId",
          "type": "uint256"
        }
      ],
      "name": "Approval",
      "type": "event"
    },
    {
      "anonymous": false,
      "inputs": [
        {
          "indexed": true,
          "internalType": "address",
          "name": "_owner",
          "type": "address"
        },
        {
          "indexed": true,
          "internalType": "address",
          "name": "_operator",
          "type": "address"
        },
        {
          "indexed": false,
          "internalType": "bool",
          "name": "_approved",
          "type": "bool"
        }
      ],
      "name": "ApprovalForAll",
      "type": "event"
    },
    {
      "anonymous": false,
      "inputs": [
        {
          "indexed": true,
          "internalType": "address",
          "name": "_from",
          "type": "address"
        },
        {
          "indexed": true,
          "internalType": "address",
          "name": "_to",
          "type": "address"
        },
        {
          "indexed": true,
          "internalType": "uint256",
          "name": "_tokenId",
          "type": "uint256"
        }
      ],
      "name": "Transfer",
      "type": "event"
    },
    {
      "inputs": [
        {
          "internalType": "bytes4",
          "name": "interfaceId",
          "type": "bytes4"
        }
      ],
      "name": "_registerInterface",
      "outputs": [],
      "stateMutability": "nonpayable",
      "type": "function"
    },
    {
      "inputs": [
        {
          "internalType": "address",
          "name": "_owner",
          "type": "address"
        }
      ],
      "name": "balanceOf",
      "outputs": [
        {
          "internalType": "uint256",
          "name": "",
          "type": "uint256"
        }
      ],
      "stateMutability": "view",
      "type": "function"
    },
    {
      "inputs": [
        {
          "internalType": "uint256",
          "name": "tokenId",
          "type": "uint256"
        }
      ],
      "name": "exists",
      "outputs": [
        {
          "internalType": "address",
          "name": "",
          "type": "address"
        }
      ],
      "stateMutability": "view",
      "type": "function"
    },
    {
      "inputs": [
        {
          "internalType": "uint256",
          "name": "_tokenId",
          "type": "uint256"
        }
      ],
      "name": "ownerOf",
      "outputs": [
        {
          "internalType": "address",
          "name": "",
          "type": "address"
        }
      ],
      "stateMutability": "view",
      "type": "function"
    },
    {
      "inputs": [
        {
          "internalType": "bytes4",
          "name": "interfaceId",
          "type": "bytes4"
        }
      ],
      "name": "supportsInterface",
      "outputs": [
        {
          "internalType": "bool",
          "name": "",
          "type": "bool"
        }
      ],
      "stateMutability": "view",
      "type": "function"
    },
    {
      "inputs": [
        {
          "internalType": "address",
          "name": "_from",
          "type": "address"
        },
        {
          "internalType": "address",
          "name": "_to",
          "type": "address"
        },
        {
          "internalType": "uint256",
          "name": "_tokenId",
          "type": "uint256"
        }
      ],
      "name": "transferFrom",
      "outputs": [],
      "stateMutability": "nonpayable",
      "type": "function"
    },
    {
      "inputs": [
        {
          "internalType": "uint256",
          "name": "index",
          "type": "uint256"
        }
      ],
      "name": "tokenByIndex",
      "outputs": [
        {
          "internalType": "uint256",
          "name": "",
          "type": "uint256"
        }
      ],
      "stateMutability": "view",
      "type": "function"
    },
    {
      "inputs": [
        {
          "internalType": "address",
          "name": "owner",
          "type": "address"
        },
        {
          "internalType": "uint256",
          "name": "index",
          "type": "uint256"
        }
      ],
      "name": "tokenOfOwnerByIndex",
      "outputs": [
        {
          "internalType": "uint256",
          "name": "",
          "type": "uint256"
        }
      ],
      "stateMutability": "view",
      "type": "function"
    },
    {
      "inputs": [],
      "name": "totalSupply",
      "outputs": [
        {
          "internalType": "uint256",
          "name": "",
          "type": "uint256"
        }
      ],
      "stateMutability": "view",
      "type": "function"
    }
  ],
  "bytecode": "0x60806040523480156200001157600080fd5b50620000437f01ffc9a7a5cef8baa21ed3c5c0d7e23accb804b619e9333b597f47a0d84076e26200013360201b60201c565b620000b87f22c82707ba960a14c7592ffb6b8cfaa073fed0048a84cc7fa41f6b5bd8e7f2e47f3a6eb71757dfc6e784c1459d26270140c2c147d95ca985c80026fc5301c3eca17f8a7e378434598edc36d108689a030cbc9d7d465de4f74c71bae1028eed6a881b18186200013360201b60201c565b6200012d7f8230223f691b981717299fae9549350a0d894555723531f02108b1f522c1a7977f6da5e1284143cdd2d15038a59bde3be031250f00291d64494c12d967b3a4e0c37fc53637662700e6c65104059db8bba34439e0c32483ab7c34e3ccae52c739549518186200013360201b60201c565b6200028e565b63ffffffff60e01b817bffffffffffffffffffffffffffffffffffffffffffffffffffffffff191614156200019f576040517f08c379a000000000000000000000000000000000000000000000000000000000815260040162000196906200026c565b60405180910390fd5b6001600080837bffffffffffffffffffffffffffffffffffffffffffffffffffffffff19167bffffffffffffffffffffffffffffffffffffffffffffffffffffffff1916815260200190815260200160002060006101000a81548160ff02191690831515021790555050565b600082825260208201905092915050565b7f45524331363520696e76616c696420696e746572666163650000000000000000600082015250565b6000620002546018836200020b565b915062000261826200021c565b602082019050919050565b60006020820190508181036000830152620002878162000245565b9050919050565b610fe3806200029e6000396000f3fe608060405234801561001057600080fd5b50600436106100935760003560e01c80632f745c59116100665780632f745c591461011e5780634f558e791461014e5780634f6ccce71461017e5780636352211e146101ae57806370a08231146101de57610093565b806301ffc9a714610098578063068417d9146100c857806318160ddd146100e457806323b872dd14610102575b600080fd5b6100b260048036038101906100ad9190610916565b61020e565b6040516100bf919061095e565b60405180910390f35b6100e260048036038101906100dd9190610916565b610275565b005b6100ec61034a565b6040516100f99190610992565b60405180910390f35b61011c60048036038101906101179190610a37565b610357565b005b61013860048036038101906101339190610a8a565b610367565b6040516101459190610992565b60405180910390f35b61016860048036038101906101639190610aca565b610417565b6040516101759190610b06565b60405180910390f35b61019860048036038101906101939190610aca565b61049c565b6040516101a59190610992565b60405180910390f35b6101c860048036038101906101c39190610aca565b61050d565b6040516101d59190610b06565b60405180910390f35b6101f860048036038101906101f39190610b21565b6105bf565b6040516102059190610992565b60405180910390f35b6000806000837bffffffffffffffffffffffffffffffffffffffffffffffffffffffff19167bffffffffffffffffffffffffffffffffffffffffffffffffffffffff1916815260200190815260200160002060009054906101000a900460ff169050919050565b63ffffffff60e01b817bffffffffffffffffffffffffffffffffffffffffffffffffffffffff191614156102de576040517f08c379a00000000000000000000000000000000000000000000000000000000081526004016102d590610bab565b60405180910390fd5b6001600080837bffffffffffffffffffffffffffffffffffffffffffffffffffffffff19167bffffffffffffffffffffffffffffffffffffffffffffffffffffffff1916815260200190815260200160002060006101000a81548160ff02191690831515021790555050565b6000600780549050905090565b610362838383610677565b505050565b6000610372836105bf565b82106103b3576040517f08c379a00000000000000000000000000000000000000000000000000000000081526004016103aa90610c17565b60405180910390fd5b600560008473ffffffffffffffffffffffffffffffffffffffff1673ffffffffffffffffffffffffffffffffffffffff168152602001908152602001600020828154811061040457610403610c37565b5b9060005260206000200154905092915050565b600061042282610847565b610461576040517f08c379a000000000000000000000000000000000000000000000000000000000815260040161045890610cb2565b60405180910390fd5b6001600083815260200190815260200160002060009054906101000a900473ffffffffffffffffffffffffffffffffffffffff169050919050565b60006104a661034a565b82106104e7576040517f08c379a00000000000000000000000000000000000000000000000000000000081526004016104de90610d1e565b60405180910390fd5b600782815481106104fb576104fa610c37565b5b90600052602060002001549050919050565b6000806001600084815260200190815260200160002060009054906101000a900473ffffffffffffffffffffffffffffffffffffffff169050600073ffffffffffffffffffffffffffffffffffffffff168173ffffffffffffffffffffffffffffffffffffffff1614156105b6576040517f08c379a00000000000000000000000000000000000000000000000000000000081526004016105ad90610db0565b60405180910390fd5b80915050919050565b60008073ffffffffffffffffffffffffffffffffffffffff168273ffffffffffffffffffffffffffffffffffffffff161415610630576040517f08c379a000000000000000000000000000000000000000000000000000000000815260040161062790610e42565b60405180910390fd5b600260008373ffffffffffffffffffffffffffffffffffffffff1673ffffffffffffffffffffffffffffffffffffffff168152602001908152602001600020549050919050565b816001600083815260200190815260200160002060006101000a81548173ffffffffffffffffffffffffffffffffffffffff021916908373ffffffffffffffffffffffffffffffffffffffff1602179055506001600260008573ffffffffffffffffffffffffffffffffffffffff1673ffffffffffffffffffffffffffffffffffffffff16815260200190815260200160002060008282546107199190610e91565b925050819055506001600260008473ffffffffffffffffffffffffffffffffffffffff1673ffffffffffffffffffffffffffffffffffffffff16815260200190815260200160002060008282546107709190610ec5565b92505081905550600073ffffffffffffffffffffffffffffffffffffffff168273ffffffffffffffffffffffffffffffffffffffff1614156107e7576040517f08c379a00000000000000000000000000000000000000000000000000000000081526004016107de90610f8d565b60405180910390fd5b808273ffffffffffffffffffffffffffffffffffffffff168473ffffffffffffffffffffffffffffffffffffffff167fddf252ad1be2c89b69c2b068fc378daa952ba7f163c4a11628f55a4df523b3ef60405160405180910390a4505050565b6000806001600084815260200190815260200160002060009054906101000a900473ffffffffffffffffffffffffffffffffffffffff169050600073ffffffffffffffffffffffffffffffffffffffff168173ffffffffffffffffffffffffffffffffffffffff161415915050919050565b600080fd5b60007fffffffff0000000000000000000000000000000000000000000000000000000082169050919050565b6108f3816108be565b81146108fe57600080fd5b50565b600081359050610910816108ea565b92915050565b60006020828403121561092c5761092b6108b9565b5b600061093a84828501610901565b91505092915050565b60008115159050919050565b61095881610943565b82525050565b6000602082019050610973600083018461094f565b92915050565b6000819050919050565b61098c81610979565b82525050565b60006020820190506109a76000830184610983565b92915050565b600073ffffffffffffffffffffffffffffffffffffffff82169050919050565b60006109d8826109ad565b9050919050565b6109e8816109cd565b81146109f357600080fd5b50565b600081359050610a05816109df565b92915050565b610a1481610979565b8114610a1f57600080fd5b50565b600081359050610a3181610a0b565b92915050565b600080600060608486031215610a5057610a4f6108b9565b5b6000610a5e868287016109f6565b9350506020610a6f868287016109f6565b9250506040610a8086828701610a22565b9150509250925092565b60008060408385031215610aa157610aa06108b9565b5b6000610aaf858286016109f6565b9250506020610ac085828601610a22565b9150509250929050565b600060208284031215610ae057610adf6108b9565b5b6000610aee84828501610a22565b91505092915050565b610b00816109cd565b82525050565b6000602082019050610b1b6000830184610af7565b92915050565b600060208284031215610b3757610b366108b9565b5b6000610b45848285016109f6565b91505092915050565b600082825260208201905092915050565b7f45524331363520696e76616c696420696e746572666163650000000000000000600082015250565b6000610b95601883610b4e565b9150610ba082610b5f565b602082019050919050565b60006020820190508181036000830152610bc481610b88565b9050919050565b7f6f776e6572206f7574206f6620626f756e647300000000000000000000000000600082015250565b6000610c01601383610b4e565b9150610c0c82610bcb565b602082019050919050565b60006020820190508181036000830152610c3081610bf4565b9050919050565b7f4e487b7100000000000000000000000000000000000000000000000000000000600052603260045260246000fd5b7f546f6b656e206973206e6f742076616c69640000000000000000000000000000600082015250565b6000610c9c601283610b4e565b9150610ca782610c66565b602082019050919050565b60006020820190508181036000830152610ccb81610c8f565b9050919050565b7f676c6f62616c20696e646578206f7574206f6620626f756e6473000000000000600082015250565b6000610d08601a83610b4e565b9150610d1382610cd2565b602082019050919050565b60006020820190508181036000830152610d3781610cfb565b9050919050565b7f4f776e657220717565727920666f72206e6f6e206578697874656e7420746f6b60008201527f656e000000000000000000000000000000000000000000000000000000000000602082015250565b6000610d9a602283610b4e565b9150610da582610d3e565b604082019050919050565b60006020820190508181036000830152610dc981610d8d565b9050919050565b7f4f776e657220717565727920666f72206e6f6e206578697374656e7420746f6b60008201527f656e000000000000000000000000000000000000000000000000000000000000602082015250565b6000610e2c602283610b4e565b9150610e3782610dd0565b604082019050919050565b60006020820190508181036000830152610e5b81610e1f565b9050919050565b7f4e487b7100000000000000000000000000000000000000000000000000000000600052601160045260246000fd5b6000610e9c82610979565b9150610ea783610979565b925082821015610eba57610eb9610e62565b5b828203905092915050565b6000610ed082610979565b9150610edb83610979565b9250827fffffffffffffffffffffffffffffffffffffffffffffffffffffffffffffffff03821115610f1057610f0f610e62565b5b828201905092915050565b7f4572726f7220455243373231205472616e73666572206164647265737320697360008201527f206e6f74207a65726f0000000000000000000000000000000000000000000000602082015250565b6000610f77602983610b4e565b9150610f8282610f1b565b604082019050919050565b60006020820190508181036000830152610fa681610f6a565b905091905056fea2646970667358221220476065144ca996ebabf1a78e044b8ec50b267d66773d749833dd631fd92492ee64736f6c634300080b0033",
  "immutableReferences": {},
  "source": "// SPDX-License-Identifier: MIT\r\npragma solidity ^0.8.0;\r\n\r\nimport \"./ERC721.sol\";\r\nimport \"./interfaces/IERC721Enumerable.sol\";\r\n\r\ncontract ERC721Enumerable is ERC721, IERC721Enumerable {\r\n    mapping(uint256 => uint256) private _allTokenIndex;\r\n    mapping(address => uint256[]) private _allTokensByOwner;\r\n    mapping(uint256 => uint256) private _ownedTokenIndex;\r\n    uint256[] private _allTokens;\r\n\r\n    constructor() {\r\n        _registerInterface(\r\n            bytes4(\r\n                keccak256(\"totalSupply(bytes4)\") ^\r\n                    keccak256(\"tokenByIndex(bytes4)\") ^\r\n                    keccak256(\"tokenOfOwnerByIndex(bytes4)\")\r\n            )\r\n        );\r\n    }\r\n\r\n    function tokenByIndex(uint256 index)\r\n        public\r\n        view\r\n        override\r\n        returns (uint256)\r\n    {\r\n        require(index < totalSupply(), \"global index out of bounds\");\r\n        return _allTokens[index];\r\n    }\r\n\r\n    function tokenOfOwnerByIndex(address owner, uint256 index)\r\n        public\r\n        view\r\n        override\r\n        returns (uint256)\r\n    {\r\n        require(index < balanceOf(owner), \"owner out of bounds\");\r\n        return _allTokensByOwner[owner][index];\r\n    }\r\n\r\n    // function tokenByIndex(uint256 _index) external view returns (uint256);\r\n    function totalSupply() public view override returns (uint256) {\r\n        return _allTokens.length;\r\n    }\r\n\r\n    function _addTokensToAllTokenEnumeration(uint256 tokenId) private {\r\n        _allTokenIndex[tokenId] = _allTokens.length;\r\n        _allTokens.push(tokenId);\r\n    }\r\n\r\n    function _addTokensToOwnerEnumeration(uint256 tokenId, address to) private {\r\n        _allTokenIndex[tokenId] = _allTokensByOwner[to].length;\r\n        _allTokensByOwner[to].push(tokenId);\r\n    }\r\n\r\n    function _addTokensToTotalSupply(uint256 tokenId) private {\r\n        _allTokens.push(tokenId);\r\n    }\r\n\r\n    function _mint(address to, uint256 tokenId) internal override(ERC721) {\r\n        super._mint(to, tokenId);\r\n        _addTokensToAllTokenEnumeration(tokenId);\r\n        _addTokensToOwnerEnumeration(tokenId, to);\r\n    }\r\n}\r\n",
  "sourcePath": "C:\\Users\\oliva\\code-local\\flowz-nft\\src\\contracts\\ERC721Enumerable.sol",
  "compiler": {
    "name": "solc",
    "version": "0.8.11+commit.d7f03943.Emscripten.clang"
  },
  "schemaVersion": "3.4.3",
  "updatedAt": "2021-12-28T15:47:52.149Z",
  "devdoc": {
    "kind": "dev",
    "methods": {
      "balanceOf(address)": {
        "details": "NFTs assigned to the zero address are considered invalid, and this  function throws for queries about the zero address.",
        "params": {
          "_owner": "An address for whom to query the balance"
        },
        "returns": {
          "_0": "The number of NFTs owned by `_owner`, possibly zero"
        }
      },
      "ownerOf(uint256)": {
        "details": "NFTs assigned to zero address are considered invalid, and queries  about them do throw.",
        "params": {
          "_tokenId": "The identifier for an NFT"
        },
        "returns": {
          "_0": "The address of the owner of the NFT"
        }
      },
      "totalSupply()": {
        "returns": {
          "_0": "A count of valid NFTs tracked by this contract, where each one of  them has an assigned and queryable owner not equal to the zero address"
        }
      },
      "transferFrom(address,address,uint256)": {
        "details": "Throws unless `msg.sender` is the current owner, an authorized  operator, or the approved address for this NFT. Throws if `_from` is  not the current owner. Throws if `_to` is the zero address. Throws if  `_tokenId` is not a valid NFT.",
        "params": {
          "_from": "The current owner of the NFT",
          "_to": "The new owner",
          "_tokenId": "The NFT to transfer"
        }
      }
    },
    "version": 1
  },
  "userdoc": {
    "kind": "user",
    "methods": {
      "balanceOf(address)": {
        "notice": "Count all NFTs assigned to an owner"
      },
      "ownerOf(uint256)": {
        "notice": "Find the owner of an NFT"
      },
      "totalSupply()": {
        "notice": "Count NFTs tracked by this contract"
      },
      "transferFrom(address,address,uint256)": {
        "notice": "Transfer ownership of an NFT -- THE CALLER IS RESPONSIBLE  TO CONFIRM THAT `_to` IS CAPABLE OF RECEIVING NFTS OR ELSE  THEY MAY BE PERMANENTLY LOST"
      }
    },
    "version": 1
  }
}